:040FF80000200200D3
:040FFC0000E002000F
:020000022000DC
:1020000000600020B5220200DD220200DF22020073
:10201000E1220200E3220200E522020000000000AB
:10202000000000000000000000000000194802004D
:10203000E922020000000000EB220200ED22020073
:10204000EF220200EF220200EF220200EF22020044
:10205000EF22020000000000EF220200EF22020047
:10206000EF220200EF220200EF220200EF22020024
:10207000EF220200EF220200EF220200EF22020014
:10208000F159020085530200EF220200EF22020004
:10209000EF220200EF220200858E0200EF220200F2
:1020A000EF220200EF22020000000000000000000A
:1020B000EF220200EF2202000000000000000000FA
:1020C0000000000000000000000000000000000010
:1020D0000000000000000000000000000000000000
:1020E00000000000000000000000000000000000F0
:1020F00000000000000000000000000000000000E0
:1021000000000000000000000000000000000000CF
:1021100000000000000000000000000000000000BF
:1021200000000000000000000000000000000000AF
:10213000000000000000000000000000000000009F
:10214000000000000000000000000000000000008F
:10215000000000000000000000000000000000007F
:10216000000000000000000000000000000000006F
:10217000000000000000000000000000000000005F
:10218000000000000000000000000000000000004F
:10219000000000000000000000000000000000003F
:1021A000000000000000000000000000000000002F
:1021B000000000000000000000000000000000001F
:1021C000000000000000000000000000000000000F
:1021D00000000000000000000000000000000000FF
:1021E00000000000000000000000000000000000EF
:1021F00000000000000000000000000000000000DF
:1022000010B5054C237833B9044B13B10448AFF330
:1022100000800123237010BD4C240020000000002A
:1022200060D3020008B5034B1BB103490348AFF369
:10223000008008BD000000005024002060D3020090
:10224000154B002B08BF134B9D46A3F5803A002188
:102250008B460F461348144A121A07F0AFFF0F4B74
:10226000002B00D098470E4B002B00D09847002041
:10227000002104000D000D48002802D00C48AFF3E7
:10228000008007F05BFF2000290002F075FC07F0DA
:1022900041FF00BF000008000060002000000000B7
:1022A000000000004C2400207450002000000000BA
:1022B000000000000649074A074B9B1A03DD043B58
:1022C000C858D050FBDC00F077F8FFF7B9FF0000EA
:1022D00058D40200902300204C240020FEE7FEE7A3
:1022E000FEE7FEE7FEE7FEE7FEE7FEE7FEE7FEE7C6
:1022F000094B1B78062B0CD1084B1B681A0708D119
:10230000074B186800F0F000A0F130035842584124
:1023100070470020704700BFE00F00F0E40F00F0AE
:10232000E80F00F00F4B1B680A2B03D10E4B1B6804
:10233000012B14D90D4B1B78062B10D10C4B1B68AD
:102340001A070CD10B4B186800F0F003302B06D0A5
:1023500000F0E000A0F140035842584170470120CE
:10236000704700BF3001001034010010E00F00F092
:10237000E40F00F0E80F00F00C4B1B78062B10D197
:102380000B4B1B681A070CD10A4B186800F0F003BE
:10239000302B08D000F0E000A0F140035842584133
:1023A0007047002070470120704700BFE00F00F029
:1023B000E40F00F0E80F00F008B5FFF7DDFF28B1EB
:1023C000814B824A1B68C3F304231360FFF790FF1D
:1023D00010B17F4B7F4A1A60FFF7A4FF28B17E4BF4
:1023E0007E4A1B68C3F342331360FFF781FF20B1BD
:1023F0007B4AD36823F08073D360FFF793FF40B12B
:102400004FF080430022C3F80C21C3F81021C3F819
:102410003825FFF76DFF10B1724B03221A60FFF7EA
:1024200067FF40B1704B05221A6001229A670022B3
:102430009A603F225A606D4B1B680A2B03D16C4B8C
:102440001B68012B0DD96B4B1B78062B09D16A4BEE
:102450001B68190705D1694B1B6803F0F003502B6B
:1024600046D14FF08052664BD2F80414C3F82015C1
:10247000D2F80814C3F82415D2F80C14C3F82815A0
:10248000D2F81014C3F82C15D2F81414C3F8301570
:10249000D2F81814C3F83415D2F81C14C3F8401538
:1024A000D2F82014C3F84415D2F82414C3F8481500
:1024B000D2F82814C3F84C15D2F82C14C3F85015D0
:1024C000D2F83014C3F85415D2F83414C3F8601598
:1024D000D2F83814C3F86415D2F83C14C3F8681560
:1024E000D2F84014C3F86C15D2F84424C3F8702510
:1024F0003E4B1B680A2B06D13D4B1B681BB9414B59
:10250000FB22C3F81825FFF737FF28B13E4B3F4A9F
:102510001B6803F04F031360FFF704FF48B14FF04F
:102520008043D3F80024D20744BF6FF00102C3F800
:1025300000242E4B1B68062B08D12D4B1B68062B45
:1025400001BF334A136843F4806313604FF01023D4
:10255000D3F80022002A03DBD3F80432002B2FDA51
:102560002C4B0122C3F80425D3F80024002AFBD009
:102570004FF010221521C2F80012D3F80024002ACF
:10258000FBD04FF010231522C3F80422214B1A462A
:10259000D3F800140029FBD00021C3F80415D2F8A9
:1025A0000034002BFBD0BFF34F8F1B491B4BCA6875
:1025B00002F4E0621343CB60BFF34F8F00BFFDE72F
:1025C000174B184A1A6008BD24030010403501401B
:1025D00074C007400DF0ADBA440200103C05004045
:1025E000F0ED00E0A0050040105600403001001062
:1025F00034010010E00F00F0E40F00F0E80F00F0ED
:1026000000C0004000F0004058020010E40E0040FE
:102610003C17004000E0014000ED00E00400FA0536
:10262000902300200090D0037047000007B5044BB2
:102630000093044A402300F032F803B05DF804FB35
:1026400049260200692400202DE9F84388461446F3
:10265000B2B10F4B0F4E0325002743F0010922466C
:1026600008EB0701002002F04BFB0744241A48B98D
:1026700033782BB14FF47A40C847013D02D1357011
:10268000BDE8F88301233370002CE8D1F8E700BFE0
:1026900010A2020068240020704702F065BBF0B56C
:1026A00095B01D46164608460C4601F054FD1A9B8F
:1026B0000D93CDE9086500252B46082205A9204683
:1026C0000A958DF82C500C9501F06CFD079B029338
:1026D000069B03939DF814308DF8115003F003020C
:1026E000012A1DD1BDF81420059DC3F3C203C2F316
:1026F00083168DF81030B20008230EA9204601F091
:1027000051FDC5F3952508AB0093324602AB0EA9E7
:10271000284600F0FFFB204601F021FD15B0F0BD7A
:10272000022AF8D1BDF81650C3F3C203C5F38915C8
:102730008DF810300827082D2E4628BF08263B4666
:1027400032460EA9204601F02DFDAD1B08AB02AAB2
:1027500031460EA8374400F041FC002DEBD1DAE7FA
:1027600008B5FFF79AFF0748042100F039FB00285D
:1027700003DA0549412000F0C3FD044B01225A71E0
:1027800008BD00BF10D4020024A202009423002040
:102790000378024613F0040006D003F0030001287A
:1027A00003D0022809D0012070470B681288023339
:1027B000C2F3831213440B6070470B6852880233D4
:1027C00003EB92130B60EEE72DE9F04F89B0002385
:1027D0000446861C0DF10F000F4615468DF80F308C
:1027E00000F022FD494801683960D0E90132134404
:1027F00001335B1A824600F5077700F5067900F58C
:102800000578B3421CD30020002D7BD004F00F03C9
:102810009B0143F0050363F30F00DAF80020DAF8B8
:1028200008301340033316444AF823009DF80F0084
:10283000CAF8006000F028FD012009B0BDE8F08F63
:102840000121384600F04EFE484600F066FE404644
:1028500000F063FEDAF80400DAF808B0049000EA49
:102860000B0003300AEB800004A9FFF791FF049BE3
:102870000246F8B90BEA03010AEB810103F1020CED
:10288000C8680590013303EA0B0B0AEB8B0B00F0D1
:1028900003000128DBF80C10CDF810C02AD0022864
:1028A0000BD01B4901924FF4BF7000F029FD019A33
:1028B00093460CE00BEA0300D3E7BDF81630C3F3F0
:1028C000891303334FEA114B0CEB930304934046F7
:1028D00000F026FE10B1049BCAF804305946384671
:1028E00000F000FEDAE901231344DAF80020013396
:1028F0009B1A86E7BDF81430C3F383134FEA114BDC
:102900006344E3E7A40544F0060086E77C25002045
:102910007BA202000B4B0C487F2210B59A6000226C
:10292000C3F81822C3E90022C3F8142283F8202236
:1029300001F0CAFB044610B9044801F047FC2046E8
:1029400010BD00BF7C250020E8D30200D0A2020009
:1029500030B50A4C71B10A4A0A49121BD208002349
:102960009A4201D1002030BD31F82350854202D077
:102970000133F5E7034654F83300F4E778D3020057
:10298000E8D3020038240020094B013903EBC000D2
:10299000032909D8DFE801F00A0204060420704781
:1029A00000797047407970470020704702207047D7
:1029B00078D30200034BD3E90030C31A5842584180
:1029C000704700BF7C2500202DE9F04387B0FFF75A
:1029D000F1FF0646002840F0F9807D4DC5F8180249
:1029E000BFF34F8F6B68AC6802932340033305EB52
:1029F000830002A9FFF7CCFE029B18B1D5F818227C
:102A0000002A5FD004EA0302991C013305EB82021D
:102A1000234005EB8303D268DB68049302F00303D1
:102A2000022B0392029160D1BDF80E306948C3F3C6
:102A30008917502FB84628BF4FF0500868F38F13FE
:102A400008F10801ADF80E3001F056FB06460028EB
:102A500000F0A78001F07FFB0023082203A9304685
:102A600001F08CFB029924EA01020132B8EB820FDB
:102A70004FEA820332D95FFA88F85BB32140DCB2B7
:102A8000A8EB040803315FFA88F9A046524C05EB25
:102A9000810108234246304601F070FB34B108F151
:102AA00008034A462146304601F068FB029B033783
:102AB00003EB97070297D5F81832002B49D1D5F8C8
:102AC000104259E02A689A428FD86A60304607B0AF
:102AD000BDE8F08340491C469946DAE70C40E11C0A
:102AE0000823424605EB8101DDE7012B59D1BDF8F2
:102AF0000C303848C3F38311062928BF062161F33F
:102B0000891302318900ADF80C3001F0F5FA064660
:102B1000002846D001F01FFB0023082203A93046FD
:102B200001F02CFB0027BDF80C20C2F38312BB0080
:102B3000974203F10803BED202994A1C2140033197
:102B4000029205EB81010422304601F017FB0137A8
:102B5000E9E7304601F003FBFFF72CFF80F00106A8
:102B6000F6B2B3E7E3685B7923B1236831461B68AB
:102B700020469847E3681C68002CF3D1304601F0EA
:102B8000EEFA0DF107008DF8074000F04DFBD5F887
:102B900018320BB9029B6B609DF8070000F074FBC4
:102BA000DAE7D5F8104254B90C4B0D480D49C01A5C
:102BB000C008000440F0020000F072F8CCE723687F
:102BC00020469B689847E3681C68ECE700267DE791
:102BD0007C250020E8D302008825002078D302005D
:102BE00078D30200BAA202002DE9F74F274D044620
:102BF0000F46914601A901221846D5F808A098462B
:102C0000FFF7E2FD78B3019E0023B01C434503EBC0
:102C1000000132D11E48002100F029FC80F3100B86
:102C20001C4B1D4A4FEA14499B1AB9EBD30F04D32E
:102C30001A4940F2A31000F063FB731C03EA0A0375
:102C4000E40005EB830304F0380449EA0B4006EA8C
:102C50000A0644F00104D860033644EA881343EAC4
:102C6000872345F8263095F820321BB1FFF7ACFEDC
:102C70000028FBD103B0BDE8F08F0AEA010105EBA3
:102C8000810159F82320CA600133BFE77C25002069
:102C900098270020E8D3020078D302007BA202002C
:102CA00000231A46FFF7A0BF07B50123019201AA2E
:102CB000FFF79AFF03B05DF804FB07B5CDE90023E9
:102CC00002236A46FFF790FF03B05DF804FB1FB5CF
:102CD000CDE90123069B039301AA0323FFF784FF99
:102CE00005B05DF804FB1FB5CDE90023069B0293F8
:102CF000079B03936A460423FFF776FF05B05DF850
:102D000004FB7FB5CDE90123089B0393099B049342
:102D10000A9B059301AA0523FFF766FF07B05DF83C
:102D200004FB00002DE9F3472B4D0446D01C8946D7
:102D3000164601A900228008AF68FFF745FDA8B339
:102D4000DDF80480AB6808F10200019001333840DF
:102D50001B1AB6EB830F00F103004FEA830A05EB61
:102D600080002DD83246494607F01AFA1B48002148
:102D700000F07DFB80F3100208F101033B4005EBFE
:102D80008303200C07EA080740EA02400337D860B3
:102D9000E40055F8273004F0380444F0020444EA13
:102DA000865203F47C131A4345F8272095F8203205
:102DB0001BB1FFF709FE0028FBD102B0BDE8F08788
:102DC0005246494607F0ECF9A6EB0A0209EB0A0164
:102DD00005F10C00C8E700BF7C25002098270020E3
:102DE00030B5134AD2F8104203460020214649B9B3
:102DF000DC682071D2F8104254B9C2F81032DB6896
:102E0000196030BDC9680D7985420AD00968EEE7BE
:102E1000E468D96824680C60D2F81022D268136084
:102E2000EFE701300A28E1D14FF0FF30E9E700BFBA
:102E30007C25002038B5094A0123D2F8104282F8D7
:102E400020321D4604B938BDE3685D712368204611
:102E50005B689847E3681C68F4E700BF7C250020A6
:102E600010B5037A052B0C460FD0437A23B1084ADC
:102E70000849204600F000FC0749204600F0FCFB12
:102E80002046BDE8104000F0E5BB002AF8D0F3E78B
:102E9000DCA2020011CC0200FEA2020073B5C388BE
:102EA00004460D4633B1144A00921449144A284688
:102EB00000F0E2FB217A05291CD0637A4BB1A0888F
:102EC000FFF762FD0F4B104953F82020284600F011
:102ED000D3FB227A0D4BA08853F822600021FFF724
:102EE00037FD0B4903463246284602B0BDE8704024
:102EF00000F0C2BB02B070BDDCA20200E9A2020079
:102F0000E1A202006CA3020011CC020090A3020017
:102F100001A302002DE9F04385B01F460C9D00235C
:102F200095F80C902B7306460C4690462946384679
:102F3000FFF7B4FFB8F1060F09D8DFE808F0041274
:102F4000181F283340003146284600F095FB002228
:102F500029463846FFF784FF85F80C9005B0BDE898
:102F6000F08322683146284600F086FBEFE7D4E97B
:102F700000233146284600F07FFBE8E7A368009372
:102F80003146D4E90023284600F076FBDFE7E3680A
:102F90000193A36800933146D4E90023284600F04A
:102FA0006BFBD4E723690293E3680193A368009362
:102FB0003146D4E90023284600F05EFBC7E7636989
:102FC000039323690293E3680193A3680093314656
:102FD000D4E90023284600F04FFBB8E708292DE983
:102FE000F84F80460E4617461C463BD8002593F8FE
:102FF0000C901D7319461046FFF750FFDFF88CA0A8
:10300000DFF88CB0AE422FD918F80520594620467B
:1030100000F032FB0135082DF4D11949194DDFF8C4
:1030200074A0204600F028FB4FF0000B5E4522D92B
:1030300018F80B207E2A1CD8134BD15C11F0970F87
:1030400008BF2E225146204600F016FB0BF1010B63
:10305000BBF1080FEAD1012221463846FFF700FFF5
:1030600084F80C90BDE8F88F5146204600F004FB30
:10307000D0E72E22E6E72946204600F0FDFAE5E7F4
:1030800015A3020013A3020059D2020011A30200EB
:103090000BA3020017A302004B1C30B5DB00044653
:1030A00012F003009BB20DD1074D2A601A44074B62
:1030B0001A60074B1870074B1870074B1C80074BA2
:1030C000198030BD0720FCE7402800203C28002064
:1030D00038280020482800204428002046280020C6
:1030E0002DE9F3472B4F3B888B4206460D46904611
:1030F0004BD300240DF107008DF8074000F094F841
:10310000254B26481A78264B008893F800C0844542
:103110005FFA8CF138BF4C1CD2B238BFE4B2A24285
:103120002DD01C781A78D1B2904286BF0131C9B235
:10313000002119709DF8070000F0A6F84FF6FF7304
:103140009C4224D0DFF86090D9F800204FEAC40AEE
:1031500042F8348002EBC403A6B19DB1114B38880C
:103160001B682A4604FB0030314607F019F8D9F8ED
:103170000030534400209D8002B0BDE8F0874FF638
:10318000FF74D7E700209880F6E70920F4E70420D1
:10319000F2E700BF442800204828002046280020ED
:1031A000382800203C28002040280020F8B5114C89
:1031B000114D264622782B789A4200D1F8BD0F484F
:1031C0000F4A2378126807880E4802EBC301006893
:1031D00052F83320898803FB070090470A49227878
:1031E0000988D3B2914286BF0133DBB2002333702A
:1031F000E0E700BF482800203828002044280020AD
:10320000402800203C28002046280020EFF30583BA
:10321000C3F308032BB9EFF31480C04300F001009F
:10322000704701207047000070B50446FFF7EEFFBD
:10323000012803D01049432000F062F8EFF3108614
:1032400072B60E4A9068012398B993600C4B0D4DED
:10325000D3F8801029401160C3F88050D3F884104F
:1032600051604FF0FF32C3F88420207006B962B677
:1032700070BD2370FAE700BFA4A30200704C0020C9
:1032800000E100E0FC06FFBD10B50446FFF7BEFFFD
:10329000012803D00949512000F032F8084B9A6800
:1032A0005AB154B9EFF3108172B6064A186810602B
:1032B000586850609C6001B962B610BDA4A30200BA
:1032C000704C002000E100E030B53AB11368DB43F8
:1032D0000A4D0144814204D1D84330BD4FF0FF3341
:1032E000F6E710F8012B5340082213F0010418BF31
:1032F0002C46013A84EA5303F7D1EBE72083B8ED7B
:1033000007B5ADF8000001916A46002144F20200C1
:1033100001F008FC03B05DF804FB30B5054659B177
:10332000B2FBF3F403FB1424A0B238B9C5E90010D2
:10333000A860AA81EB8130BD0E20FCE70920FAE7E6
:1033400082B050E8022FC188B2EB324F4FF0000339
:1033500017BF92B241EA014142EA014104E04268EA
:10336000B2EB324F08BF012340E80212002AE8D135
:103370008DF807309DF80730002B0CBF112000207E
:1033800002B0704737B550E8013F9DB2C48925446B
:103390008489A54228BF2D1B0489A54202BFBFF323
:1033A0002F8F002207E0C5EA030540E80154002CF6
:1033B000E9D14FF001028DF803200193019B9DF8A4
:1033C00003200B6002F0FF0322B10B880068184451
:1033D00003B030BD1846FBE70A884B889A4209D1F2
:1033E00050E8012FC2EA024240E80123002BF7D146
:1033F000012070470020704737B550E8023F1FFAA0
:10340000A3F5C488A54202BFBFF32F8F00220DE0B1
:10341000C48925448489A54228BF2D1BC3EA0545DC
:1034200040E80254002CE8D14FF001028DF803204F
:103430000193019B9DF803200B6002F0FF0322B172
:103440004B880068184403B030BD1846FBE70A8873
:103450004B889A4209D150E8022FC2EA224240E842
:103460000223002BF7D1012070470020704710B5D0
:10347000034653E8000F0A4643E8002494F0000F87
:10348000F7D110BD10B5034653E8000F40EA010222
:1034900043E8002494F0000FF6D110BD10B50346A8
:1034A00053E8002F42EA010043E8000494F0000FC3
:1034B000F6D110BD10B5034653E8000F00EA010233
:1034C00043E8002494F0000FF6D110BD10B5034678
:1034D00053E8002F02EA010043E8000494F0000FD3
:1034E000F6D110BD10B5034653E8002F02EB0100E2
:1034F00043E8000494F0000FF6D110BD10B5034668
:1035000053E8002FA2EB010043E8000494F0000F01
:10351000F6D110BD0121FFF7B5BF0121FFF7BEBFF6
:103520000021FFF7C7BF0021FFF7D0BF10B5044649
:10353000002834D003681BB91A49FF20FFF7E0FECA
:10354000636823B917494FF48070FFF7D9FEA36869
:1035500023B9144940F20110FFF7D2FEE36823B902
:1035600010494FF48170FFF7CBFE238A23B90D4930
:1035700040F20310FFF7C4FED4E9012321689B1A2F
:10358000DBB20A60013BDBB2FF2B226802D10020D4
:10359000107110BD1168481C10600B70F2E70E200E
:1035A000F7E700BFEAA3020037B5044620B9144983
:1035B0004FF49270FFF7A4FE00250DF107008DF87F
:1035C0000750FFF731FE2268616813688B4210D9FB
:1035D000591E116013F8015C228AE36802FB05356D
:1035E0002268A36811685B1A1179DBB2994238BF6F
:1035F00013719DF80700FFF747FE284603B030BD62
:10360000EAA3020037B50C46054620B9104940F23E
:103610004710FFF775FE24B90D494FF4A470FFF76A
:103620006FFE00230DF107008DF80730FFF7FCFD5A
:103630002A681368591C1160E968641A298AB4FB66
:10364000F1F41C709DF80700FFF71EFE03B030BDBB
:10365000EAA3020010B5044618B906493120FFF765
:103660004FFEA2682AB16369216820699847002348
:10367000A36010BD22A402000EB433B5059D04461C
:1036800018B911494220FFF73BFE63691BB90E4987
:103690004320FFF735FE23681BB90B494420FFF791
:1036A0002FFE63681BB908494520FFF729FE35B195
:1036B00006AB01AA29462046019300F079F802B032
:1036C000BDE8304003B0704722A402000A2938B593
:1036D00004460D4602D10D21FFF7F8FFA3682268CA
:1036E000591CA160D554D4E901329A4204D3204632
:1036F000BDE83840FFF7AEBF38BD00002DE9F84FF8
:103700009846DDE90A43154682460F460A464FF0C1
:103710000109AA420FD2C14538BFC14613F0010BBF
:1037200001D16CB900240126B8F1010F1BD908F1B1
:10373000FF386E43F8E709F10109B2FBF5F2E8E75B
:103740009B070ED5B8F1000F0CBF30262026A145EF
:10375000E9D2013C31465046FFF7B8FF002CF6D1C4
:10376000E0E72026F3E7B7FBF6F39D42E1D9DFF867
:103770003C80B7FBF6F3504618F8031006FB1377AE
:10378000FFF7A4FF3346AB42B6FBF5F6F1D2BBF12F
:10379000000F02D00CB1A14501D3BDE8F88F202164
:1037A0005046013CFFF792FFF4E700BF85A40200FA
:1037B0002DE9F74F88461746054620B9B1494FF421
:1037C000A270FFF79DFD6B6923B9AE494FF4A3705A
:1037D000FFF796FD2B6823B9AA4940F24710FFF77F
:1037E0008FFD6B6823B9A7494FF4A470FFF788FDDC
:1037F000B8F1000F00F0428118F8011B49B92B7B8A
:10380000002B00F03B81284603B0BDE8F04FFFF7E6
:1038100021BF252940F0B780002698F800302D2BD5
:10382000424608F1010823D0302B24D02B2B25D081
:1038300000242A2B02F1010123D13B681A1D3A60B2
:103840001B680A461C4413782E2B26D101324FF0F8
:10385000000A104610F8011BA1F1300CBCF1090F51
:103860001DD80A2303FB0A13A3F1300A0246F0E72E
:1038700046F00106D1E746F00206CEE746F0040620
:10388000CBE711F8013CA3F130000928DBD80A226C
:1038900002FB0434303C0A46CBE74FF0000A12F832
:1038A000011B01F0FB0068289046F8D0782909D860
:1038B0006F290CD8632962D022D8252963D05829D2
:1038C00000F0888098F80030002B95D197E7703988
:1038D0000829F7D801A353F821F000BF573A020096
:1038E000C5380200C5380200E5390200C5380200BB
:1038F000C3390200C5380200C5380200D5390200BC
:10390000642901D06929DDD13A68111D3960D2F8E6
:10391000009089EAE972A2EBE9724FF0010B092AE3
:1039200035DCD34538BFD3462CB1B9F1000F01DBEC
:10393000720700D5013CB30702D5BAF1000F03D0DE
:10394000F00701D44CBB0024B9F1000F2DDAC9F106
:1039500000092D212846FFF7B9FE06F00302022ACE
:1039600004D1BAF1000F01D11CBB0024CDE90046FF
:1039700053460A2249462846FFF7C0FEA2E73B68A5
:103980001A1D3A6019782846FFF7A0FE9AE70A2325
:103990000BF1010BB2FBF3F2C1E7A345D4D2202116
:1039A0002846013CFFF792FECCE77107D5D52B21C5
:1039B000D0E7A345DAD230212846013CFFF786FE46
:1039C000D2E73968CDE900460A1D3A6053460A221B
:1039D0000968D0E739680A1D3A60CDE900465346C8
:1039E0001022F5E73B681A1D3A6016F00106D3F87D
:1039F000009028D1B9F1000F03D0484606F0EEFB45
:103A00000646B44200D904BB09F1FF3919F8011F79
:103A100000293FF457AF2846FFF758FEF6E728463F
:103A20000136FFF753FE19F806100029F7D1A64218
:103A3000BFF448AF002C3FF445AF20212846013C9D
:103A4000FFF744FEF3E70026EDE720212846013C7E
:103A5000FFF73CFED5E73B681A1D3A603021284647
:103A60001C68FFF733FE78212846FFF72FFE00225F
:103A70000823CDE90032214610227CE703B0BDE8DF
:103A8000F08F00BF50A4020070B50D4616460446E4
:103A900018B908495520FFF733FC1DB905495620D0
:103AA000FFF72EFC25602B6831462046BDE87040AC
:103AB000184700BF95A402002DE9F041DDF81880F9
:103AC0000E4617461D46044618B922498820FFF7BE
:103AD00017FC1FB91F498920FFF712FC23681BB987
:103AE0001C498A20FFF70CFC45BB1A498B20FFF7C5
:103AF00007FCB20703D017499120FFF701FCBB0771
:103B000003D014499220FFF7FBFBE3689E4204D3E5
:103B100022696B1E3344934203D90E499320FFF769
:103B2000EFFB2368CDF81880D3F80CE03A462B461B
:103B300031462046F446BDE8F041604763685A6864
:103B4000B5FBF2F302FB1353002BD2D001498E20B8
:103B5000CDE700BF95A402002DE9F0410D461646C1
:103B60001F46044618B919499E20FFF7C9FB236870
:103B70001BB916499F20FFF7C3FB1EB91349A020AC
:103B8000FFF7BEFB63681B68013B2B4203D00F4964
:103B9000A320FFF7B5FBE3689D4207D363681B686A
:103BA0006A1E03FB06232269934203D90749A52015
:103BB000FFF7A6FB2368D3F810E032463B462946C0
:103BC0002046F446BDE8F041604700BF95A40200DE
:103BD00070B550B90E4D0F4C0026641B1423B4FB76
:103BE000F3F4B44208D1002010E00368002BF1D0B8
:103BF000BDE87040DB6918472B6813B901361435EE
:103C0000EFE7DB69284698470028F7D070BD00BF72
:103C1000382400204C240020014B436000207047D2
:103C2000E0A402000846704700207047024B186865
:103C3000003818BF012070474C28002008B5024802
:103C4000FFF771FC002008BD4C28002008B5104685
:103C50001A4606F0A5FA002008BD00002DE9F04341
:103C6000814687B014480E4615469846FFF752FC29
:103C70000446F0B90746BD4215D10F48FFF753FC83
:103C8000D9F808305BB102228DF800200022CDE97E
:103C90000126CDE90325CDF81480684698472046D3
:103CA00007B0BDE8F08306EB073000F071FC013788
:103CB000E1E71124F3E700BF4C2800202DE9F04193
:103CC000804686B011480F4616461D46FFF722FC77
:103CD0000446C8B9AA083146384600F071FC0B48C2
:103CE000FFF721FCD8F8083053B101228DF80020ED
:103CF0000C9A0592CDE90147CDE9036568469847DE
:103D0000204606B0BDE8F0811124F9E74C280020D8
:103D100029DF704728DF704770B50668B36886B042
:103D200004460D4673B114220021684606F046FA97
:103D3000A36805932379019533B1012B0ED0B368A5
:103D40006846984706B070BD01238DF8003023699E
:103D50000293E368039363690493F0E702238DF809
:103D60000030E3681B030293F5E708467047002024
:103D700070470000024B187A003818BF01207047C6
:103D80003C2A0020034B187A0122B0FA80F05A74C2
:103D9000400970473C2A002008B510461A4606F034
:103DA000FFF9002008BD000008B5142200210448D6
:103DB00006F004FA0348FFF7C3FA002008BD00BF6D
:103DC0003C2A00202C2A002010B5094C094B4360E6
:103DD0002046FFF79FFB48B905F03AF806492074E2
:103DE0001C2306484FF4EE72FFF797FA002010BD2F
:103DF0003C2A00200CA50200502800202C2A00207C
:103E000070B5234C234E237A25463BB922492348DB
:103E1000FFF7F2FA306008B9606070BD02233468C1
:103E20002B72237973B1012B23D020460321FFF796
:103E300073FF00232B726B60BDE870401649174872
:103E4000FFF705BBD4E90523D21A142AD4E90310DD
:103E500028BF14229208012A38BF012219441844AD
:103E6000FFF756FF014650B11128DED101232B7216
:103E7000D3E7D4E903031844FFF74CFFF2E72B7CA8
:103E8000002BCAD1BDE87040022000F009B800BF85
:103E90003C2A0020542A0020502A00202C2A0020EE
:103EA00038B5831E012B43D8224C237A002B3FD0F8
:103EB000022B09D103282ED01F4B00221B68E26081
:103EC0001A793AB1012A20D0637C6BBBBDE8384037
:103ED000FFF796BFD3E905128D1A142D94BF52191E
:103EE00014329A619142EFD102284FF0000308BFCB
:103EF00019462372104B18BF0D211868FFF70CFFED
:103F00000E490F48FFF7A3FADEE71A6901321A617A
:103F10005B699A42E7E7E3680133082B01D8E36065
:103F2000D2E70023E360DFE7BDE8384004F080BF5C
:103F300038BD00BF3C2A0020542A0020502A00200F
:103F40002C2A002000F0FD03012B08D1044B002295
:103F50005A74421E504250411874FFF751BF7047C7
:103F60003C2A002010B5064C201DFFF7D3FA28B9D3
:103F7000637C1BB9BDE81040FFF742BF10BD00BF16
:103F80003C2A00202DE9F34180460D460F4801A947
:103F900016461F46FFF7F6F90446A8B11C22002179
:103FA00006F00CF92D0B0123237101A90748C4F871
:103FB0000080A760E5606661FFF70EFAFFF7D2FFA9
:103FC000002002B0BDE8F0810420FAE72C2A00208E
:103FD0002DE9F74381468846104801A917461E4639
:103FE000FFF7D0F90446B0B11C22002106F0E6F834
:103FF00000250A9BA36001A9C4E90378074825713D
:10400000C4F800906661FFF7E7F9FFF7ABFF2846B9
:1040100003B0BDE8F0830420FAE700BF2C2A00209B
:104020002DE9F74F99469DF8303000938846934626
:10403000064618B92349B620FFF762F9F18872796C
:104040004A43043A4A4505D81E490192C420FFF765
:1040500057F9019ADBF80070B6F806A007EB0901E2
:10406000914209F1040488BFA2EB0907B4FBFAF5F9
:10407000CBF800700AFB154445B9AAEB040BBB450D
:1040800028BFBB462FB903B0BDE8F08F3668013DAD
:10409000F2E7009B043408EB050034445A466BB148
:1040A0002146A7EB0B0706F07BF8BA455D4436685E
:1040B000D3464FF0000428BFBB46E3E70146204645
:1040C000EFE700BF38A50200FFF730BAF8B5467930
:1040D0000146721E0546002393422D6803D3002437
:1040E000A64202D8F8BD0133F6E70F682846FFF76D
:1040F00089FA01343946F3E72DE9F843CD1C068AE5
:104100000746FFF751FA043E35440446B5FBF6F581
:10411000F0B14FF48073EDB28380C680013D07603B
:1041200081464FF00008A84512D23846FFF73CFA06
:10413000064648B163790133637108F10108C9F893
:10414000000007608146EEE72046FFF7BFFF3446D8
:104150002046BDE8F88301210430FFF7C3B910B54C
:10416000012104460430FFF7C9F910F0FF0F04D114
:104170002046BDE81040FFF7A9BF10BD1FB514468B
:1041800003920022009203AAFFF74AFF039BA34277
:1041900003D00349F620FFF7B3F804B010BD00BF09
:1041A00038A502001FB5144603920122009203AA0B
:1041B000FFF736FF039BA34204D003494FF48070FE
:1041C000FFF79EF804B010BD38A5020082680023F6
:1041D000936082681361826853618268D3608268E9
:1041E000536082681360704738B50D46044618B9AD
:1041F00008495020FFF784F81DB906495120FFF700
:104200007FF825602B6863606A68934204BF0023CF
:10421000636038BD70A5020010B5044618B90B499B
:104220006320FFF76DF823681BB908496420FFF786
:1042300067F8636843B1226891680B446360526811
:10424000934204BF0023636010BD00BF70A502004D
:1042500010B50D49A1F59472914201D800200FE0EC
:104260008C1AE30F03EBE4035B1002EBC30452F878
:104270003330834205D802D204F10802ECE76068CB
:1042800010BD2146E8E700BFB8AA020008B5FFF755
:10429000DFFF024B002808BF184608BD7BA90200BB
:1042A0002DE9F04FC9B008AA01F1400514464B783A
:1042B0000E781B0443EA0663CE7833438E780431CC
:1042C00043EA06238D4244F8043BF0D11024916B5D
:1042D00016464FEAF14383EA714383EA9123716AF8
:1042E000366852F8045F31440B444FEAB54181EA25
:1042F000F51181EAD50101340B44402CD363E6D19A
:10430000D0E914E30093836D0193C36D0293036EB0
:104310000393436E0493836E0593C36E0693DDE9A6
:10432000057BDDE9031CDDE901592B4B009E07935A
:1043300074464FF00008079B53F8042B07934FEA8D
:10434000F12383EAB11383EA716A08AB53F828308A
:104350001A440AEB020327EA010A01EA0C028AEA7C
:1043600002021A444FEA743A86EA05035A448AEA7A
:10437000B40A06EA050B234083EA0B038AEAB45A1F
:1043800008F101089A44B8F1400F02EB0903BB465B
:104390005244A94619D172440265009A22444265EA
:1043A000019A32448265029A2A44C265039A1A44E9
:1043B000049B02660B444366059B63448366069B2D
:1043C0003B44C36649B0BDE8F08F674635468C462E
:1043D000264619461446AEE7B8AA020030B5E0B149
:1043E0000F4A104900240025C0E91245C0E9141203
:1043F0000D4C0E4A0E4DC0E916420E4AC0E9185245
:104400000D4A826602F17452A2F523020023A2F63D
:1044100092420364C266184630BD0E20FCE700BF1E
:1044200085AE67BB67E6096A72F36E3C3AF54FA545
:104430007F520E518C68059BABD9831F70B50C461B
:10444000E8B1D2B900201BE0A5180026AC42F9D093
:10445000036C14F8012BC2540133402B0364F5D1D3
:104460000146FFF71DFFD0E9123213F5007342F148
:104470000002C0E912320664E8E70029E4D10E2008
:1044800070BD70B50D4616460446002875D000294B
:1044900073D0026C8021372A815402F101034FF05E
:1044A000000240D8382B39D1D4E91201226C0823FC
:1044B000E3FB020103BAE3630B0A84F83A300B0C06
:1044C00084F839300B0EC4E9120184F83B1084F8EB
:1044D000383021462046FFF7E3FE691E76B30023FD
:1044E000E26EDA4001F8012FA26EDA400A71626EC4
:1044F000DA400A72226EDA400A73E26DDA400A7418
:10450000A26DDA400A75626DDA400A76226DDA40F1
:104510000833202B0A77E3D1002070BDE254013329
:10452000C0E7E25401333F2BFBD921462046FFF779
:10453000B7FE3822002105F041FEB5E71823226DB1
:10454000DA4001F8012F626DDA400A71A26DDA409B
:104550000A72E26DDA400A73226EDA400A74626E01
:10456000DA400A75A26EDA400A76E26EDA40083B5B
:1045700013F1080F0A77E2D1CEE70E20CDE7000055
:10458000024AD2F80034002BFBD0704700E0014013
:104590000A4908B50223C1F80435BFF36F8FBFF392
:1045A0004F8FC1F80805FFF7EBFF0023C1F8043572
:1045B000BFF36F8FBFF34F8F08BD00BF00E0014016
:1045C0000E4B10B50124C3F80445BFF36F8FBFF342
:1045D0004F8F01EB8204401AA14208D1074B002201
:1045E000C3F80425BFF36F8FBFF34F8F10BD43187F
:1045F00051F8042B1A60FFF7C3FFEDE700E001401C
:1046000043689B68184708B5436808305A7900F03A
:1046100027FA002008BD2DE9F0430C469BB0084660
:1046200098461746FFF7ECFFD4F8049099F8055028
:10463000454528BF454606462A46394602A800F0A9
:10464000F3F999F8052022990AA800F009FA0096D2
:104650000AAB2A4602A904F1080005F0EFFB002886
:1046600048F2425018BF00201BB0BDE8F0830000A4
:1046700002494FF4F370FEF743BE00BFC4AB020023
:10468000032810B5044603D908494120FEF738FE37
:10469000074B1C5D1F2C01D9FFF7EAFF01234FF0E8
:1046A000A042A340C2F80C3510BD00BFEFAB020022
:1046B00019AC0200032810B5044603D90849472065
:1046C000FEF71EFE074B1C5D1F2C01D9FFF7D0FF24
:1046D00001234FF0A042A340C2F8083510BD00BF2F
:1046E000EFAB020019AC020008B50020FFF7E2FFB3
:1046F0000120FFF7DFFF0220FFF7DCFFBDE80840E5
:104700000320FFF7D7BFC20710B504460CD54FF002
:10471000A0430322C3F84427C3F84827C3F84C2713
:10472000C3F85027FFF7E0FFA3070AD54FF0A043D7
:104730000C22C3F83427C3F83827C3F83C27C3F842
:10474000402710BD38B1054B0360054B4360012382
:104750000372002070470E20704700BF8B47020095
:104760006547020069B10B78022B0CD1022804D0F6
:10477000032814BF08201120704703230B7000206A
:1047800070470E2070470820704710B50C4681B165
:104790000B78012B06D00ED9033B012B94BF0820C8
:1047A000112010BD03F0ACF90028FAD102232370C8
:1047B000F7E70E20F5E70820F3E7000070B5144B8B
:1047C000144A0C21D21AB2FBF1F2816911F8025C91
:1047D000044635B900690021914205D101232360C7
:1047E0000EE04FF0FF30F6E71E68AE420CD1461CDB
:1047F00007D19D68D4E90001D4E90223A8472060CD
:1048000070BD5E688642F4D001310C33E4E700BF2E
:104810006CD3020078D302001EF0040F0CBFEFF33C
:104820000880EFF30980FFF7C9BF00BF034620B13E
:1048300031B10020C1E90003704748F210507047C1
:1048400048F21350704730B1036848F240508B4231
:1048500008BF0020704748F21050704728B148F256
:104860001150914208BF0020704748F21050704725
:1048700070B506460C461D46FFF7D8FF50B9B37910
:104880004AB1AB420AD111462046FFF7BCFE08B937
:10489000044B236070BD48F21050FBE748F2115002
:1048A000F8E700BF7052464D2DE9F0470C4606462A
:1048B0000F492046DDE9088915461F46FFF7C3FF6B
:1048C000A0B963685A79494652004046FFF7C6FFCF
:1048D00060B94DB1CDF820803B462A46214630468E
:1048E000BDE8F047FFF797BE48F21050BDE8F087EB
:1048F0007052464D10B5044638B149B141600B685D
:10490000984708B9044B236010BD48F20150FBE7FB
:1049100048F21050F8E700BF6E524648F0B4134614
:1049200048B10768094EB7420AD161B12AB143685C
:10493000F0BC5B68184748F201531846F0BC70475A
:1049400048F20253F9E748F21053F6E76E52464830
:10495000F0B460B107680C4EB7420CD171B1436836
:104960001568DC68A5420CD3F0BC9B68184748F278
:104970000150F0BC704748F20250FAE748F2135079
:10498000F7E748F21450F4E76E5246482DE9F0413B
:104990000446DDE9067815461E46FFF7ABFF60B911
:1049A000324629462046FFF7B9FF30B9424639461C
:1049B0002046BDE8F041FFF7CBBFBDE8F081000025
:1049C000F8B50A4F0A4C0B4DE41B0121E40829708D
:1049D0000026A64203D102232B700020F8BD57F811
:1049E000363098470028F9D10136F2E764D3020047
:1049F00064D30200582A002038B50D46044618B981
:104A000008493320FEF77CFC691E21442046814280
:104A100000D238BD03780A7800F8012B01F801397B
:104A2000F5E700BF1DAC020070B50D461446064602
:104A300018B90A494520FEF763FC1DB9074946200D
:104A4000FEF75EFC621E3244013DB24200D270BDF0
:104A500015F8013F02F80139F7E700BF1DAC02006D
:104A600070B5164604460D46FFF7DEFF3246A9191B
:104A7000A019BDE87040FFF7D7BF38B50D46044612
:104A8000FFF7BAFF29466019BDE83840FFF7B4BF09
:104A900008B507281BD8DFE800F004121A1A1A0418
:104AA0001A040120FFF72FFE0020FFF7E9FD012087
:104AB000FFF7E6FDBDE808400220FFF7FBBD01203F
:104AC000FFF7F8FDBDE808400220FFF7D9BD08BD9B
:104AD00008B5FEF7AFF9FDF777FF0028FBD10D4DC4
:104AE000642445F001054FF47A40A847013CFAD10F
:104AF000094B1B68DB0700D500BEBFF34F8F07498A
:104B0000074BCA6802F4E0621343CB60BFF34F8FD8
:104B100000BFFDE710AD0200F0ED00E000ED00E0A9
:104B20000400FA0507B50B46064C07490092641AC3
:104B3000E40824040246054944F00100FEF7C7F8E2
:104B4000FFF7C6FF78D3020078D302009CAC0200C6
:104B500008B50246054B064806491B1ADB081B042C
:104B600043F00100FEF7A0F8FFF7B2FF78D3020090
:104B700078D30200D3AC02000022104638B54FF4BF
:104B8000805100F0D1FA024608B1FFF7E1FF134867
:104B9000C0F5383100F0C8FA01460028F5D11048B8
:104BA000104CFDF7B7FEFDF7DBFD0F4B0F49E41A84
:104BB000E408240444F003042046FEF771F80C488E
:104BC00000F066F905460028DFD100F06FFA2046B4
:104BD0000849FEF765F8284638BD00BF00200200EE
:104BE000C154020078D3020078D30200EEAC020078
:104BF000914A0200FAAC02000369C1688B429DBF72
:104C00008268D21802F1FF3203F1FF3394BF501AC9
:104C1000581A70472DE9F843D0E902940546A9EBEC
:104C200004084068904520440F46144404D905F018
:104C3000B7FAEC60BDE8F8834246A4EB090405F03E
:104C4000AFFA6868224607EB0801F0E72DE9F84360
:104C5000C5680646894617464FF000083469B368B0
:104C60007068A54228BFE418013C621B5C1BBC4273
:104C700028BF3C46944228BF144649462844224651
:104C800005F08EFAB3682544AB4208BF00253F1BF0
:104C9000A044A144F560E1D14046BDE8F88300009E
:104CA00010B5114C114AA2610223C4E90433104B20
:104CB000E361A2644FF400730E4A0F492362E26479
:104CC00000231022E01DA3626362E362A3656365B3
:104CD000E365226505F07AFA0849204605F076FA80
:104CE0002023A37110BD00BF7C4C002016AD020034
:104CF000692A0020592A00201FAD020023AD0200BE
:104D0000F8B5184C182300FB033503FB004025447D
:104D1000C46A012C0F4616460FD0022C1AD0F4B9E3
:104D20002846FFF769FF864205D8324639462846AD
:104D3000FFF770FF34462046F8BD2846FFF75CFFBA
:104D40008642344628BF0446224639462846FFF7A5
:104D500061FFF0E72846BDE8F840FFF777BF002481
:104D6000E9E700BF7C4C0020FFF79ABF41DF7047A6
:104D7000014B01221A7070478C30002008B5094899
:104D8000094B0A49C01AC008000440F00400FDF7AE
:104D900087FF074B074800221A70BDE8084002F061
:104DA000CBBD00BF78D3020078D302002AAD020049
:104DB0008C300020214E020008B50748074B0849F7
:104DC000C01AC008000440F00300FDF769FFBDE809
:104DD0000840FFF7D3BF00BF78D3020078D30200AA
:104DE00040AD0200042810B5044607D8022808D9AF
:104DF00009494FF4701000F023FB02E0831F012BE0
:104E000006D9064B1B6833B12046BDE81040184751
:104E1000FFF7B4FFF5E710BDB94D02009030002058
:104E200008B5FEF707F8FDF7CFFD0028FBD10B4DC5
:104E3000642445F001054FF47A40A847013CFAD1BB
:104E4000BFF34F8F0649074BCA6802F4E062134371
:104E5000CB60BFF34F8F00BFFDE700BFF0AE020095
:104E600000ED00E00400FA0508B50648064B0749C6
:104E7000C01AC008000440F00400FDF711FF002034
:104E800008BD00BF78D3020078D3020054AD020001
:104E9000F8B56D4B6D4C6E49E41AE408240444F0F7
:104EA000040705463846FDF7FBFE6A4B6A4A1D605B
:104EB0004FF0A0430020C3F8402702F053FD002824
:104EC00040F0BD8000F06EFC012800F0B1800228A7
:104ED00000F0B780002840F0B2804FF08043D3F854
:104EE000005415F4803546D04FF48032C3F80024C6
:104EF00005465A4E336A012B50D0594944F00300FD
:104F0000FDF7CEFE57493846FDF7CAFE4FF4701440
:104F100000F080FD544A20211820FEF7BDF808B1AA
:104F2000FFF716FE514B1A6802F0F802B02A06D1BC
:104F30001A68D20742BF1A6802F04E021A60FFF7E1
:104F400093FF00287BD12046494900F079FA49486F
:104F500001F094FA002872D147493846FDF7A0FEC7
:104F600000F09EFDFEF722F9FDF72EFD0028F7D197
:104F7000FFF7FCFEF4E7D3F8202502F0F802A82A98
:104F80000AD1D3F82025D00706D5D3F8202502F082
:104F90005602C3F82025ACE70125AAE743F2040333
:104FA0001A68364B9A420FD1726B1DB996F860326F
:104FB000012B09D032484FF4805103F0C5FB18B9DA
:104FC000304944F002009BE702F078FEB2690146E6
:104FD0001DB996F8A132012B05D02B4803F0B4FB84
:104FE00008B92A49EDE72A493846FDF759FE4FF03E
:104FF000A043D3F81035D90301D4264983E71B4BCE
:105000001B6813F0B10F01D023497CE702F0B0FD1B
:10501000A8B9224D2870224802F08EFC2B7823B9C3
:1050200020494FF4FE70FEF76BF900F03FF801E005
:10503000FFF7A4FE1C4944F00100FDF731FE0320F8
:10504000F8BD4FF4A02463E778D3020078D30200C0
:105050006EAD0200903000200C000300F44C0020E4
:1050600085AD020023AE02006C2C00201C05004020
:10507000B94D0200E54D020092AE0200DBE5B151F0
:10508000544F0020B3AD0200954F0020EEAD02005A
:1050900016AE020046AE020065AE02008C30002063
:1050A000714D0200A2AE020086AE020070B5184B30
:1050B000184C194D1949E41AE408240444F0040674
:1050C0004FF480523046FDF7EFFDD5F880201449AB
:1050D0003046FDF7E9FD4FF0FF33C5F88030C5F8E5
:1050E0008031C5F88430C5F8843102F089F820B1E8
:1050F0000C4944F00100FDF7D3FDFDF765FC0028E5
:10510000FBD1BDE870404FF4805000F033B800BFD1
:1051100078D3020078D3020000E100E0F6AE02008E
:105120002CAF020056AF02000246C1F30B0070B56F
:10513000E8B9B2F53C3F1AD80139090B130B01EB62
:10514000123101254FF08044994200D270BD03F026
:105150001F025E0905FA02F203D0012E04D00133CA
:10516000F2E7C4F80026FAE7C4F80426F7E70720B8
:10517000ECE7000030B504462C48002289B0C0F5A9
:105180003C31FFF7D1FF024648B12948294B2A4953
:105190001B1ADB081B0443F00100FDF785FD02F03C
:1051A0008DFD264B9969002201441046FFF7BCFF94
:1051B000024648B11E481F4B21491B1ADB081B043D
:1051C00043F00100FDF770FDEFF305810023D4E902
:1051D000002083F3148883F3108883F3118883F30A
:1051E0001388C1F3080139B982F308884FF0FF33FF
:1051F0009E46004709B030BDA2F120044FF0FF35B4
:10520000CDE90033CDE90233CDE9055004932022E6
:105210004FF0807369462046079304F0C1FF84F382
:105220000888AE466FF006031847E3E70020020047
:1052300078D3020078D302008BAF0200F44C002038
:10524000C2AF0200F7B5264B064626481B1ADB08FC
:105250001B040C463246244943F00400FDF724FDAC
:10526000B4F1807F37D321498F20FEF749F86FF0E2
:105270007F41A14228BF2146641A1D4F631E942B13
:10528000D7F804558EBF7460963474600D44347B37
:1052900025F07F4598BF963D032C03D9134977200D
:1052A000FEF72EF804F5A873124A47F823504FF47E
:1052B000F86042F0010290470F4BA2001344002215
:1052C0001A601B680193019B4FF48033A340C7F819
:1052D000043303B0F0BD952CC9D804499020C4E72D
:1052E00078D3020078D30200F6AF02000CB00200BF
:1052F0000010014080B00200401101401A490A78B4
:1053000084B0002A2DD14FF08043A020D3F8183468
:10531000DB035EBF154B01221A60154A00231360A0
:1053200012680392039A134A136012680292029A57
:10533000114A136012680192019A104A82F811030F
:105340004FF40030106002F1C04202F53C520C48AC
:10535000C2F808350123036002201360C2F8040379
:105360000B7004B0704700BF983000200800004068
:1053700000110140401101404411014000E100E0F2
:10538000081001402DE9F743234B1A6842B1234925
:105390000A6801320A6000221A601B680093009BB1
:1053A0001F4D204B204C214EDFF88C80DFF88C9075
:1053B0001F4FED1AED082D0445F004053368CBB1FD
:1053C0000023336033680193224641462846019BFF
:1053D000FDF76AFC227B17494FF480339340C9F8EC
:1053E000083322462846FDF75FFC616851B120462C
:1053F000FFF728FF0436BE4204F11004DED103B0EB
:10540000BDE8F083A16811B12046FFF71BFF2368B8
:10541000002BEFD09847EDE70411014094300020B5
:1054200078D3020078D302009C2300204011014071
:105430004811014069B0020057B00200001001405D
:10544000F8B5114B114E0446114837681B1ADB089A
:105450001B043A4643F004000D460E49FDF724FCB8
:105460003A7B4FF4803393400B4AC2F808334CB177
:105470003668FFF743FF356021463046BDE8F84007
:10548000FFF7E0BEF8BD00BF78D30200BC230020C8
:1054900078D3020057B002000010014070B5074BEE
:1054A0001D680E46A8600446FFF728FF2E602146BF
:1054B0002846BDE87040FFF7C5BE00BFC0230020EE
:1054C000034A044B1068D3F8043503EB00607047BF
:1054D0009430002000100140014B01221A707047E7
:1054E000993000202DE9F341214BDA6A5F6A9D6C07
:1054F000AC2A1FD15B6B1D44FF1A1E4B1E4E1F4A68
:105500001F490097F61AF608360446F004082B46A1
:105510004046FDF7DCFB19483A46294604F032FEC6
:10552000044668B917494046FDF7BAFB204602B069
:10553000BDE8F081002DE0D102F0D6FB0546DCE7A6
:1055400011493B462A464046FDF7B7FBFDF73CFABA
:105550000028FBD100F0A4FA3946284601F032FEBB
:1055600004460028E2D0094946F00100DCE700BF0C
:10557000F44C002078D3020078D30200002002000F
:1055800086B00200BBB00200F2B002001FB1020000
:105590002DE9F04F3C4B16463C4A9B1A87B0DB087E
:1055A0001B04814205460F46049343F0040B08D1C7
:1055B00037495846FDF774FB0024204607B0BDE884
:1055C000F08F03D233494F20FDF79AFEC5F30B034A
:1055D0001BB130495120FDF793FE7B1BB3F5805F73
:1055E0004FEA133403D22B495420FDF789FE00F013
:1055F00011FA082C28BF082406F6FF7923034FEA86
:105600001939039405930EB93446D6E7039B4B45ED
:105610003ABFDDF80CA0DDF81480CA464FF0000256
:105620005146284628BFB04601F086FD04460028B2
:10563000C3D11949CDF800802B463A465846FDF7AC
:1056400046FB08F10302234622F0030239462846AE
:1056500001F034FD04460028AFD1104A136B4344D7
:10566000136302F06FF9A9EB0A09A6EB080645449B
:10567000474404460028C6D0049B094943F0010072
:10568000FDF70EFB99E700BF78D3020078D3020044
:1056900039B1020048B1020096B10200F44C00207A
:1056A000B7B102002DE9F04702F02EFB344C354B28
:1056B000DFF8ECA03449DAF84850DAF83080DAF84C
:1056C0003460E41AE408240444F004090746484618
:1056D000FDF7E6FA42F20403EA5803F1A34303F5A7
:1056E000471303F2D7539A4208D0284944F00100E7
:1056F000FDF7D6FA03252846BDE8F087DAF8303002
:10570000B3421D4405D122494846FDF7C9FA002598
:10571000F1E7DBB94FF4405248461278142A81BFB2
:1057200043F214021B491268B2FBF1F205F5005175
:1057300098BF1A460978142981BF42F21403E95828
:10574000144BB1FBF3F31449FDF7B7FAA6EB0802CB
:1057500002F6FF7222F47F62294622F00F0207EB65
:105760000800FFF715FF054628B10C4944F0010079
:10577000FDF796FABFE7BDE8F04702F0E3B800BFD7
:1057800078D3020078D30200F0B1020015B2020013
:1057900049B2020040420F005BB2020084B2020034
:1057A000F44C00202DE9F047624B634D634E644991
:1057B000ED1AED082D0445F004073846FDF770FAA0
:1057C000F36AAA2B00F09A800CD8012B22D0A52BCB
:1057D00000F0888045F003005A49FDF761FA002087
:1057E000BDE8F087AC2BF5D157493846FDF758FA9C
:1057F00056493846FDF754FAFFF754FF044600288F
:1058000000F08680524945F00100FDF749FA4FF05B
:10581000010823E04F493846FDF742FAD6F82490B4
:10582000D6F848A002F04AFA346B4B4900EB040862
:105830003846FDF735FA316B5144884514BFA9EB62
:10584000040200224046FFF7A3FE044670B143491C
:1058500045F00100FDF724FA4FF00008F36A4049D3
:10586000224645F00100FDF728FA13E002F026FA7F
:1058700022464946FDF728FDB26A904280462AD169
:1058800038493846FDF70CFA0123C6E90783C6F804
:105890001890A0463448DFF8F49002F003FA002391
:1058A000324889F8003002F04DF899F8003004468B
:1058B00023B92F494FF4D170FDF722FD8CBBB8F10D
:1058C000000F35D0336A012B32D138462949FDF714
:1058D000E7F9022084E70346274945F00100FDF778
:1058E000ECF9D6E725493846FDF7DAF9FFF7DAFE95
:1058F0004FF001080446002CCCD0AFE720493846D1
:10590000FDF7CEF9FFF7EEFD4FF000080446F2E791
:10591000FFF7E8FD044608B11A4974E74FF00108A3
:10592000B8E745F001001849FDF7BAF9032057E739
:10593000012055E778D3020078D30200F44C002010
:105940009DB20200A9B3020052B3020060B302008C
:105950007DB30200BEB20200C8B2020084B20200EF
:10596000C2B30200E3B20200184D0020D954020075
:1059700048B10200F4B30200F8B2020040B30200E2
:1059800049B3020093B3020050B4020099300020E2
:105990000A4AD2F800347BB109480023D2F808152E
:1059A000D940C90748BF03F5C07103F1010348BFDF
:1059B00042F82100072BF1D1704700BF00000140E1
:1059C0003546526E08B50748074B0849C01AC0084B
:1059D000000440F00300FDF763F9BDE80840FFF75D
:1059E000D7BF00BF88D3020078D302006AB4020098
:1059F00007B5074B00221A601B680193019BFDF756
:105A000019FAFCF7E1FF0028FBD103B05DF804FBB5
:105A10000001014070B5194E33784BBB184C194842
:105A2000194B241AE408D3F80024240444F0030496
:105A3000FAB1D3F8045515492A462046FDF734F942
:105A400040F616529542B8BF1546A5F54865FFF7D2
:105A50009FFF2A460E492046FDF726F90D492846A4
:105A6000FFF71CFD0C4B4FF480321A60012333709A
:105A700070BD0A492046FDF713F9F7E79A30002078
:105A800088D3020078D302000000014078B40200FD
:105A900091B40200C559020000E100E0C3B4020065
:105AA000034BD3F800340BB1FFF772BF704700BF50
:105AB000000001400023C0E90232C0E900118B88D8
:105AC0001A440261B1F906301A444261088800386C
:105AD00018BF0120704710B542681188034600299D
:105AE00039D002F110014160148A2CB9C2680168F2
:105AF000FFF7E0FF204610BD9078118900F03004D8
:105B0000302C1BD1947C04F03004302C1DD19088B3
:105B10001969091A19610021907810F0300F02BF3D
:105B2000986801309860908A0844196901441961A5
:105B3000B2F91620114459610120DCE700F0F004AD
:105B4000202C02D150894143E6E700F0C0008028B4
:105B500008BF0421E0E70846CDE770B54668044673
:105B60000D4663681A88AA4204D19B7803F00F039C
:105B7000082B07D12046FFF7AEFF6368B342F0D190
:105B8000002070BD0120FCE743681A44426011B157
:105B900001399A4201D10120704713F8010B01F835
:105BA000010FF6E72DE9F34183680446884623B9DF
:105BB0000026304602B0BDE8F081036801220DF1F5
:105BC0000701984706460028F2D0A3689DF80750C1
:105BD000013BA3609DF90730002B1ADA05F07F0521
:105BE0000727A368002BE3D0236801220DF10701EA
:105BF000204698470028DBD0A3689DF80720013B8A
:105C0000A36002F07F03BB401D43130607F10707A3
:105C100002D4C8F80050CCE7232FE2D1C8E770B512
:105C20004268927802F00F01082986B003461FD11E
:105C300003691C6800260CB906B070BD2368267382
:105C40009D68626829466846FFF734FF63680493DD
:105C500004F10C030593AB7803F0C003802B08BF5D
:105C6000231D684608BF0493FFF7D9FFA468E2E745
:105C700012F0C00120D102F0300010280ED15A6974
:105C800011705A6818699378D46803F00F03072BD2
:105C900009D10146204600F017F8CDE79006F0D56F
:105CA0005B691980C8E71289214614B104F078FABB
:105CB000C2E704F083FABFE78029BDD10069002163
:105CC00092060160B8D5EBE77FB50A460146684603
:105CD000FFF7F0FE30B16846FFF7A1FF6846FFF717
:105CE000FAFEF7E707B05DF804FB000030B50446A4
:105CF00085B01546A9B90268114B9A4211D0102DF2
:105D000006D82A4669462046FFF7F0FF05B030BDA9
:105D1000102269462046FFF7E9FF0028F6D0103D23
:105D2000EDE7A368AB4201D20020EFE723682A46E3
:105D3000204698470028F7D0A268521BA260E5E7EA
:105D4000895B0200F7B50E4601A907461546FFF725
:105D500029FFA8B1019A0123D3184FF0000404D2FF
:105D6000B17801F0C001802901D1204608E03189D5
:105D70009942FAD329463846FFF7B8FF019BEC5405
:105D800003B0F0BD73B50D4601A906461446FFF7F2
:105D900009FF98B1019AB2F5803F11D2AB7803F0B8
:105DA000C003802B02F102010AD02B898B4207D35A
:105DB0002146304621F8022BFFF798FF02B070BD54
:105DC0000020FBE710B5034C82600022C0E90041CF
:105DD000C26010BD895B02002DE9F3410026044634
:105DE0000F46B0463546A3682BB3236801220DF158
:105DF000070120469847F0B1A3689DF807C0013B12
:105E00000CF07F02C5F12001A360A5F1200302FA86
:105E100003F322FA01F10B43AA401CF0800F46EA7B
:105E2000020643EA080805F1070502D1C7E9006840
:105E300002E0462DD7D1002002B0BDE8F08173B555
:105E40000C4669461646FFF7C7FF68B12389082B41
:105E50000CD1DDE90045C6E90045DDE90023AB4290
:105E600006BFA2420120002002B070BD042B04D165
:105E7000009B33601C460025EFE7022B4FF000002B
:105E800004D1009B33809CB20546E6E7012BEBD1A1
:105E9000009B337003F0FF04F6E737B50D46694603
:105EA0001446FFF799FF30B12A89082ADDE900314D
:105EB00003D1C4E9003103B030BD042A18464FEACB
:105EC000E37108D123601A460B468B4206BF82421B
:105ED00001200020EFE7022A04D11BB223801AB26E
:105EE000D317F2E7012A03D15BB223705AB2F7E766
:105EF0000020E0E7F7B51F4600233B700D460B700E
:105F0000136001A904461646FFF74CFE30B9A3689A
:105F100013B901233B70002003B0F0BD019C002C9D
:105F2000F7D0E30804F0070433602C70F4E713B5EE
:105F3000044605291FD8DFE801F0030F151E1E1CBB
:105F4000012201A92046FFF7D1FE18B19DF90430C6
:105F5000002BF5DB02B010BD082200212046FFF720
:105F6000C5FEF7E701A9FFF71DFE0028F2D0019A50
:105F7000F3E70422F1E70020ECE773B50D4601A931
:105F80000446FFF70FFE064618B90026304602B059
:105F900070BD94E80F0085E80F0001998A42F4D3A0
:105FA000A960A3685B1AA360F0E700002DE9F04345
:105FB0005768BB7813F0C00489B006468C46154676
:105FC00003D0402C6AD000240CE003F00F025F499C
:105FD00003F03003202B51F8228026D006D8CBB115
:105FE000102B1CD0204609B0BDE8F083302BF9D12E
:105FF0006B6939881980072A0AD16B6828691A8960
:10600000214604F0DBF86B682969D868FFF75CFE6D
:106010002A6940E02A693946C0470446E2E76B69CD
:1060200001221A702A696968F6E7BCF1020FD5F8F7
:10603000149024D1042A22D804A9FFF79EFF044615
:106040000028C0D0069B2BB16968B9F800304A8996
:106050009A4205D8059B7360069B002BC2D0B2E71D
:1060600008892A6903FB002204A8C04728B1B9F8AF
:1060700000300133A9F80030E4E70446EAE7B9F854
:1060800000307A899A429ED92A693989581CA9F820
:10609000000003FB012269683046BDE7D2F810809A
:1060A000474657F8043B13B9FFF741FFB5E702290C
:1060B00014D104A9FFF761FF002884D0D8F800307C
:1060C00069683A4604A89847044600283FF47BAF25
:1060D000069B002BF2D1059B736083E7012925D035
:1060E00005292BD000297FF46EAF0C460DF1040971
:1060F00001340B2C3FF467AF012249463046FFF7CD
:10610000F5FD00283FF45FAF19F9013B002BEFDBF1
:106110000F4B049301ABCDE9053400230793D8F866
:10612000003069683A4604A8984776E7082201A932
:10613000FFF7DCFD08240028EAD144E704220DEB38
:106140000201FFF7D3FD0424F5E700BFECB4020021
:10615000895B02002DE9F04F91B00446002604A8A7
:10616000CDE90266FFF7A6FCA3683BBBDDE9053479
:1061700004A89D78FFF7AFFC0028F7D115F0300F89
:1061800003D1059B1B8803B10134002C00F0A980CA
:106190006309002202A9934240F09C8010AA02EBFE
:1061A000830304F01F0453F8383CC4F120044FF07B
:1061B000FF30E040C31A584258410DE00DF103038F
:1061C00001AA0DF102012046FFF794FE38B99DF8AF
:1061D0000330002BCAD1002011B0BDE8F08F019927
:1061E00004A8FFF7BAFC002850D1019BB3427DD32D
:1061F000059D059A937803F00F03082B7FD004A820
:10620000FFF769FC059B9D42F3D14FF0FF36019FDC
:10621000B7426BD3089B9DF80290D4F808801D68A4
:106220004FF0010AA368002D5DD098459CD12B68E2
:10623000D3F800B0BBF1000F08D04B463A462946D0
:106240002046D8470028C6D0AD68EBE7D3F808B0A1
:10625000BBF800309F42F7D16A6859460AA8FFF799
:1062600029FC6B680E9305F10C030F939BF8023029
:1062700003F0C003802B04BF2B1D0E930AAA85F8E0
:106280000CA049462046FFF791FEDBE7059B9B7873
:1062900013F0300F0FD1069A3F2A0CD8510910ABDA
:1062A00003EB810102F01F020123934051F8382CC7
:1062B000134341F8383CE5682DB19DF8022001995F
:1062C00004AB2046A8479DF8021004AA2046FFF719
:1062D0006DFE10E051F8225001357FF47DAF0132A0
:1062E00059E7012078E798457FF43EAF9DF802100A
:1062F0002046FFF71CFE00287FF436AF6BE71688B8
:1063000085E770B50C460646154611462046FFF750
:10631000DBFC2A4621463046BDE87040FFF71ABF35
:10632000F0B585B0CF680C46694605461646FFF7BE
:1063300024FE68B1E06858B1A37803F03003202B45
:1063400032463946684605D1FFF7DBFF019B6B609B
:1063500005B0F0BDFFF7FEFEF8E7D3B50C46694681
:10636000FFF73AFD80B1DDE9001300274A0801F08C
:10637000010642EAC37256EA07014FEA53031CBF03
:10638000D243DB43C4E9002302B0D0BD37B50D468C
:1063900069461446FFF7E1FF68B12B89082B0CD141
:1063A000DDE90001C4E90001DDE900238B4206BFFD
:1063B00082420120002003B030BD042B03D100989D
:1063C0002060C117F0E7022B04D1BDF90000208046
:1063D00000B2F6E7012B04D19DF90000207040B215
:1063E000EFE70020E7E713B504220C460DEB0201AE
:1063F000FFF77CFC08B1019B236002B010BD114681
:10640000FFF7F1BF13B508220C466946FFF76EFC93
:1064100018B1DDE90023C4E9002302B010BD114624
:10642000FFF7F0BF10B513681F2B144607D90022E1
:106430000830FEF726F808B92023236010BD48F283
:106440001450FBE70830FDF7F9BF0830FDF7C6BF71
:10645000007800F001007047062810B5044602D10C
:10646000002001F0E5FB044B1B681BB12046BDE892
:106470001040184710BD00BF9C30002038B5104BAD
:10648000104C1860104B1149E41AE408240444F03D
:106490000300FCF705FC0020FFF7DEFF0C4801F0CD
:1064A0008FFB054620B9BDE83840094801F062B9C4
:1064B0000246084944F00100FCF7F6FB284638BDC7
:1064C0009C30002078D3020078D30200DCB60200B2
:1064D00059640200EFB602006CDF70476DDF704751
:1064E00072DF704773DF704774DF704775DF704786
:1064F00076DF70477ADF70477CDF70477DDF70475B
:106500007FDF704786DF70478FDF7047A8DF7047F7
:10651000AADF7047ADDF7047AEDF7047B0DF70476E
:10652000B1DF7047B5DF704762DF704766DF7047E5
:1065300013DF70477FB50023CDF80B308DF80F3097
:106540000A4BADF806109B89ADF8083001238DF891
:106550000A300DF10603CDE90430054B02A9188875
:10656000FFF7DAFF07B05DF804FB00BF0A41002027
:10657000C623002010B5094B0949044609481B1AD7
:10658000DB081B04224643F00400FCF78DFB214688
:106590000548BDE81040FDF735B800BF90D30200B4
:1065A00019B7020078D30200FCD3020070B518229C
:1065B0008CB00DEB0200002103F000FE28230893AD
:1065C0002348244B2449254CC01AC0080004012547
:1065D00040F004008DF818508DF82D50FCF760FB4A
:1065E0001623ADF806300023CDE9033305930223CB
:1065F00009260622237023715923A2706371032296
:10660000FE230DF10601A0190294ADF80C6065702F
:10661000E270A371FFF772FFB8B9BDF806302672B9
:106620005A19E271BDF80C200D4C134402A906AAB8
:106630002046ADF80C30FFF753FF30B92078FFF754
:1066400053FF20782946FFF74DFF0CB070BD00BF07
:1066500090D3020078D302002BB702001E41002025
:10666000C42300202DE9F0410388222B8CB004467E
:1066700034D80F2B05D8012B00F05F810CB0BDE89A
:10668000F081103B122BF9D801A252F823F000BF81
:106690000D6702004D670200A968020055680200FC
:1066A000C76A02007D6602007D6602007D66020008
:1066B0007D6602007D660200E96A02007D660200D6
:1066C0007D6602007D6602007D6602007D66020036
:1066D0007D66020003690200E5680200503B9AB241
:1066E000062ACBD8062BC9D801A252F823F000BF46
:1066F0007567020047690200E96A02007D660200D0
:106700007D660200F967020027690200AD4BAE4DBD
:10671000AE49ED1AED082D0445F00400FCF7C0FA6F
:10672000AB4BA2881A80AB4A12681C460AB1012002
:106730009047A9492088FFF7D9FE024600289DD03E
:10674000A64945F00100FCF7AFFA97E7A04B4FF6DA
:10675000FF721A80A24B1B685A0704D4FFF726FF6A
:1067600008B1FEF7F5F99B4B1B68002B86D0022081
:10677000984783E79B4FE288BB889A427FF47EAFBD
:106780009948914DFCF710FF8E4BED1AED082D0442
:10679000064628B9954945F00200FCF781FA6DE7F5
:1067A000F4230093238A9249024645F00400FCF743
:1067B0008EFA228A04F11201304603F0F1FC18220D
:1067C00000210DEB020003F0F9FC08238DF81830CE
:1067D000884B0893884B0797CDE9093606A8238A8A
:1067E000ADF82C3000F0A6FF00283FF447AF7E48FC
:1067F0003146FCF707FF41E7E288F62A26D8D31E88
:106800009B0725D0D31F9BB2013B594201F00301E6
:1068100003F0030302F1FF3458BF4B42E31A9CB26A
:10682000684B69487549C01AC0080004234640F007
:106830000400FCF742FA664B21461888FFF772FE07
:1068400000283FF41BAFFEF783F917E7F724E7E7CB
:106850001446E5E75B4B5C4C69495D4DE41AE4087E
:10686000240444F004042046FCF71AFA0023ADF88F
:106870001A300223ADF81830288804AB06AA42F675
:1068800005210793FFF746FE08B1FEF761F9BDF851
:1068900010205C492046FCF707FA002328881A4696
:1068A0008521FFF72DFECBE74648474D56492D1A67
:1068B000ED082D0445F004052846FCF7F1F962893E
:1068C00052492846FCF7F0F9228951492846FCF73D
:1068D000EBF9A2894F492846FCF7E6F9E2894E49CF
:1068E000284630E7374B38484C49C01AC008237A4D
:1068F00000930004637AA27A40F00400FCF7E7F901
:10690000BCE6304B30484649C01AC008000440F08D
:106910000400FCF7C5F90023A088ADF8183006A9DB
:10692000FFF7F2FD8CE7A379002B7FF4A7AE284B8D
:1069300013211888FFF7DCFD82E7254B002118881A
:10694000FFF7F4FD7CE7A379002B3FF497AE022B11
:106950007FF494AE234920898A8990420E467FF4C1
:106960008DAEA27B012A7FF489AE00220120CDE901
:1069700006228DF81E00208A154DADF82000608A91
:10698000ADF8220004F114000990ADF81220098A34
:1069900028888DF8183003AF04AAADF81030059799
:1069A000FFF7B8FDA84600283CD13846FFF750FD58
:1069B000C0BB40F2FD132888ADF81C3006A9FFF7D4
:1069C000ADFD5BE678D3020090D302003AB7020037
:1069D000C62300204441002086BB020044B70200C9
:1069E000404100200A410020FCD3020072B702009F
:1069F00091B70200E16B020075650200B1B70200B9
:106A0000F7B702001FB8020042B8020069B80200DE
:106A10007FB8020095B80200A7B80200BCB8020017
:106A2000F6B80200002306A9B8F80000ADF81C3043
:106A3000FFF774FD014600287FF420AE18220DEB0D
:106A4000020003F0BBFB237D304A8DF81830022B87
:106A50000796089224D0062B10D0012B10D12C4B76
:106A60001A882C4B1A80637DD4F816200A93012BC8
:106A70000B9205D1284801F0DBF801E0637D0A9311
:106A800006A800F057FE024600283FF4F7AD234861
:106A9000234B24491B1ADB081B0443F0010052E678
:106AA0001E4B1F482049C01AC008000440F00400D3
:106AB000FCF7F6F8A27D637D43EA0223144A1380B3
:106AC000144A1380DCE7154B15481849C01AC00852
:106AD000000440F00400FCF7E3F80023A0881A4605
:106AE0001946FFF70FFDABE60023A0881A461946AA
:106AF000FFF716FD08B1FEF72BF80948074B0C49C4
:106B0000C01AC008000440F0040046E6E16B020031
:106B1000484100204A41002064D3020078D302009B
:106B200090D3020031B902001FB9020065B902001A
:106B30008BB9020070B5204E346814F0010432D0D5
:106B40001E4B984236D01E4B1E4D1F4C1F49ED1A4E
:106B5000ED082D0445F004052846FCF7A1F822882D
:106B60004FF6FF739A4220D019492846FCF798F84F
:106B70003368208843F0040313213360FFF7B8FC27
:106B8000044680B9134EC82446F001064FF47A40FB
:106B9000B047013CFAD102F01BF9044618B90E497E
:106BA0002846FCF77DF8204670BD0C4B1878FFF79F
:106BB0009BFCF0E70024F6E74041002064D302008C
:106BC00078D3020090D30200C6230020ADB90200A2
:106BD000CAB9020080BB0200D9B90200C423002058
:106BE00030B50D4687B0044620B9464940F28710BB
:106BF000FCF786FB25B943494FF4C470FCF780FBD2
:106C000000210D2202A8019103F0D8FA2378082B65
:106C10000BD13D4A3D4913880988013B9BB2138043
:106C200031B32BBB032311802370637822788DF856
:106C300005206021012B8DF804108DF8063019D045
:106C400033493448401AC0080004334940F0020078
:106C5000FCF733F863780B2B12D100F0A9FA8DF80A
:106C60000700002000F09EFA042101A8FFF762FC53
:106C700007B030BD062A05D0082A29D0032A27D01C
:106C80000321F2E7E1688DF80710D4E90123080A2F
:106C90008DF80800080C090E8DF80A10110A8DF8FD
:106CA0000B208DF80C10110C120E8DF80E201A0A04
:106CB0008DF80F308DF810201A0C1B0E8DF80D106A
:106CC0008DF809008DF811208DF812300F21CCE7D6
:106CD000D4E90123110A8DF807208DF80810110C52
:106CE000120E8DF80A201A0A8DF80B308DF80C2040
:106CF0001A0C1B0E8DF809108DF80D208DF80E3032
:106D00000B21B2E7F2B902004A41002048410020BD
:106D100078D3020090D3020037BA02002DE9F04385
:106D2000054695B020B9464940F24F40FCF7E8FAD5
:106D3000444B4FF6FF721A8001204FF659632A46E2
:106D400002A98DF80A00ADF80830FFF7DFFB044612
:106D5000002871D13C4B04AA03F1100716461868AD
:106D60005968144603C40833BB422246F7D1A91C14
:106D70003046FFF7D9FB044600285DD101461C22AE
:106D80000DA803F01BFA9DF83430ADF8044043F031
:106D900004038DF834300223ADF80C30AB788DF855
:106DA0000E3004F0F80343F003038DF80630F423AB
:106DB000CDE90A44ADF82C302B4601AE33F8040B74
:106DC0000C944FF0110903AF08AA0DA9CDE908767C
:106DD0008DF80590FFF79CFBA046044660BB01467A
:106DE0001C220DA803F0EAF99DF83430ADF80440F8
:106DF00023F0180343F018038DF834300123ADF865
:106E00000C30AB788DF80E301723CDE90A44ADF87D
:106E10002C302B4608F0E80833F80C0B0C9448F0A3
:106E2000130808AA0DA9CDE908768DF805908DF80C
:106E30000680FFF76DFB0446204615B0BDE8F083E1
:106E4000F2B90200C62300206EBB0200F0B5524E1C
:106E5000336813F0010485B0074640F09B804F4B28
:106E60004F4D5049ED1AED082D0445F00405284614
:106E7000FBF716FF4C4B4D481F60FCF757FB029485
:106E800000F0B1F90446002873D1494A494928461F
:106E9000FBF70AFF4648FFF74BFB0446002868D182
:106EA00045492846FBF7FCFE01F054FF0446002844
:106EB0005FD102A802F01CF80446002859D13F49CE
:106EC0002846FBF7EDFE02A9012002F01BF804465C
:106ED00000284ED13A492846FBF7E2FE02A802F00C
:106EE000DFF80446002844D100F032FE002843D0E9
:106EF000344800F021FE336843F00203336011236D
:106F000002A88DF80430FFF7E9FA044688BB9DF823
:106F1000093002A801338DF80930FFF7DDFA044685
:106F200038BB33689B072CD5264C2749A3692846D4
:106F3000221DFBF7C2FEA069211D82B201A8FFF746
:106F4000DBFA0446A8B92148FFF7D4FA044680B911
:106F50001F48FFF7E3FE044658B9FFF727FB044636
:106F600038B933681B4943F0010328463360FBF707
:106F700097FE204605B0F0BD17492846FBF790FE66
:106F8000BDE716492846FBF78BFE154803F026F9A6
:106F90001349D2E70024ECE74041002078D30200F7
:106FA00090D3020066BA020044410020FCD30200E4
:106FB0000020020085BA0200A5BA0200BABA020097
:106FC000D1BA0200A030002003BB020086BB020041
:106FD0000A41002043BB0200E9BA020024BB0200C0
:106FE0005EBA020030B51A490B6885B004460BB191
:106FF000013B0B601748184A63682578121AD208BB
:10700000120442F004008BB90B68144A144900932F
:10701000012D08BF0A46A3681249FBF758FE6369B1
:107020009BB1E06805B0BDE8304018470A6802929D
:1070300022690192A2680A490092084A012D08BFFC
:107040000A460949FBF75DFEE9E705B030BD00BF20
:107050004C41002078D3020098D3020094BB020078
:107060008EBB02009ABB0200C0BB020008B50246FC
:107070000B4B0C481B1ADB081B0443F004004AB1FD
:107080000949FBF70DFE09490948BDE808400022FF
:10709000FCF7FABC0749FBF703FE0749F4E700BF1A
:1070A00098D3020078D30200FCBB020018A50200AE
:1070B0003824002022BC0200ECA402002DE9F74392
:1070C0009846174C174BDFF86C90E41AE408D9F88F
:1070D00000302404CDE9002305460B460E46174632
:1070E0001149024644F00400FBF7FDFD29460F4814
:1070F000CDF800803B463246FCF7DEFC054640B941
:10710000D9F800300133C9F80030284603B0BDE893
:10711000F0830246064944F00200FBF7C5FDF4E7A0
:1071200098D3020078D302004ABC02003824002021
:107130008DBC02004C4100202DE9F341134B144C4F
:10714000144FE41AE4083B680093240405460B46F8
:107150000E4690461049024644F00400FBF7B7FD86
:1071600029460E4843463246FCF7F6FC054630B940
:107170003B6801333B60284602B0BDE8F08102461F
:10718000074944F00200FBF78FFDF4E778D30200D3
:1071900098D302004C410020BABC020038240020E1
:1071A000F7BC0200014B18700B20704750410020C3
:1071B000024B002218781A70704700BF504100201F
:1071C00018DF704730B585B0054610220C4668467A
:1071D000002102F0F3FFA408684601950294FFF72E
:1071E000EFFF05B030BD1FB50023CDE90133039398
:1071F000684602230093FFF7E3FF05B05DF804FB48
:107200004FF000534FF480521A6000207047000086
:10721000084B09480949C01A10B5C008000440F0DD
:107220000400FBF73DFD064BBDE810401B6806203F
:10723000184700BF78D30200A0D3020032BD02007D
:107240005C4100200A2803D90B38C0B2FFF7AABF5F
:107250007047000070B5054686B00020FCF7B8FC0A
:10726000014690B1244A18212846FBF739FF02460F
:1072700048B12248224B23491B1ADB081B0443F068
:107280000100FBF711FD06B070BD1822684602F040
:1072900095FF04231A4C8DF80030184B1A4EE41A4F
:1072A0001A4B1A6D3368E40824049A4244F004042B
:1072B0001AD117492046FBF7F3FC164B31681868C2
:1072C00001F02CFC8DF80100FFF7BCFFD5E901139C
:1072D0008DF80100684698470F4800F033FB9DF891
:1072E00001200E492046CCE701238DF80130684685
:1072F000D5E901139847F2E75572020078D30200EE
:10730000A0D3020066BD020054410020F44C0020CE
:107310008FBD02005841002011720200BEBD020064
:107320002DE9F041836888B0044623B9984940F2BA
:10733000CF20FBF7E5FF1822002102A802F03EFF54
:107340000123944E8DF80930934B22788DF8082054
:10735000F61AF6083604531E46F004050B2B00F20D
:10736000C881DFE813F02C000C002C002C00C601B3
:107370002C00C6012C00C601C601C60111008749B8
:107380002846FBF78DFC07E028468549FBF788FC7B
:10739000844B07201B6898479DF80920824928469E
:1073A000FBF782FCD4E9011302A898479DF8093045
:1073B000012B00F088817B4B05201B6882E1062AA7
:1073C0007A4F01D0012A01D122693A703A78012A14
:1073D00009D0022A74D0764946F00100FBF760FC20
:1073E00000233B70C9E0072B64D8DFE803F0046397
:1073F0001443635B631E6F492846FBF751FC694BDE
:1074000003201B689847606901F078F8FFF71AFFBE
:107410008DF80900C0E768492846FBF741FC674B37
:10742000DA6B1B6C03920493B6E7236923B95849BE
:1074300040F21310FBF764FFA38A23B954494FF4B9
:107440008A70FBF75DFF5E492846FBF729FCA18A9D
:10745000206901F06BF8FFF7F5FE584B8DF8090035
:10746000DA6B1B6C0493E3680392002B94D02069C1
:10747000984791E753492846FBF712FC5249534875
:1074800001F0D2F8FFF7DEFE01288DF8090083D164
:10749000002000F057FA08B94D4971E70A238DF82A
:1074A000093079E74B492846FBF7FAFB4FF40073A4
:1074B0000593B4E736494FF4BC70FBF721FF6BE747
:1074C000072B00F21281DFE813F008001001D20050
:1074D000E10010010101100197003F492846FBF728
:1074E000DFFB01F053F830B93C4946F00100FBF7EF
:1074F000D7FB0823D3E7626932B9394946F0010066
:10750000FBF7CEFB0323CAE7C2F30B0343B12B4BBC
:107510002D495B6D096813448B4201D03149EDE779
:10752000B2F5805F06D9304946F00100FBF7B8FBA1
:107530000423B4E7214F24497B6D0968D0188842A1
:1075400006D9009146F001002849FBF7C0FBD0E7BF
:107550007A64FA6CBA643B651C4A3B6361691068E3
:1075600001F6FF710022090B1844FFF7E5FD30B169
:107570001F4946F00100FBF793FB05238FE7BB6C27
:1075800000933B6D7A6C1B492846FBF7A0FB03E791
:10759000E6BD0200A0D3020078D302002FBE020095
:1075A00053BE02005C410020BEBD0200C823002083
:1075B000EBC102006BBE020095BE0200F44C00203D
:1075C000B9BE0200E2BE0200544100205841002032
:1075D0000DBF020032BF02005CBF020083BF020089
:1075E000B8BF0200D1BF0200F2BF020016C0020005
:1075F00087C002009EC0020041492846FBF750FBAD
:1076000000F0C4FF00283FF474AF3E4FA18AD7E9D1
:1076100014329B1A7A6C0B44934201D93A496DE7B4
:107620003A4A3B6B1268206903EB020807F14802F3
:10763000FBF74AFEE368064623B935494FF4F87074
:10764000FBF75EFEE368A28A21694046FFF736FD3C
:1076500008B1E3680BE7A28A3B6B049613443B63D3
:10766000A38A3A6DBE6413443B65039394E6254EAA
:1076700028492846FBF714FBB36C326D264928468F
:10768000FBF71BFBB36C0493336DEEE728462349ED
:10769000FBF706FB1B48D0E91473426CFB1A9342BC
:1076A00005D01F4946F00100FBF707FB21E7836C7B
:1076B000C3640021416447652046FFF7CBFD194BA9
:1076C0001B680420984708B0BDE8F0811649284699
:1076D000FBF7E6FA0B4B4FF480519A6C1B6D05914A
:1076E00000910492114903934EE7094940F2972013
:1076F000E3E60F4946F00300FBF7D6FA0223CEE695
:10770000D9C00200F44C0020FFC002005841002004
:10771000E6BD020016C1020037C102004DC10200E1
:1077200075C102005C41002099C10200C0C1020085
:107730000BC2020010B583688BB10A4A1821FBF70F
:10774000CFFC044648B10848084B09491B1ADB081E
:107750001B0443F00200FBF7A3FA204610BD0724E8
:10776000FBE700BF2173020078D30200A0D3020020
:107770002AC2020038B50546C0B10120FFF776FCE9
:10778000044648B900F0ACFE00F000FF30B9084BE9
:1077900000201D60FFF706FD204638BD054906485C
:1077A00000F042FF0128F2D00324F5E70724F3E7B5
:1077B0005C410020544100205841002010B50022B7
:1077C000044658210430FBF77FFD23681B1A5842FA
:1077D000584110BD2DE9F04717464FF460729846A6
:1077E0001F4D0646894602F0CDFC1E4BED1AED08F2
:1077F0002D0445F0040A044650B91B495046FBF7D6
:107800004FFA17B90020BDE8F0872046B847F9E7DE
:1078100016495046FBF744FA154932465046FBF7E5
:1078200043FA002201213046FFF786FC30B11149AE
:1078300045F00100FBF734FA0320E4E74FF46072EF
:107840004946404602F0ACFC3B464FF4607241466C
:107850003046FFF733FC0028D4D00749E8E700BFE3
:10786000A8D3020078D302005AC20200A4C20200C8
:10787000B8C20200D8C20200FBC2020070B50D4CB3
:107880000546002258212046FBF71EFD002244F841
:10789000040CC32104F51770FBF716FD261FC4F86E
:1078A00058022A463146044B0448BDE87040FFF7B1
:1078B00091BF00BFF84C00206041002000F00200A2
:1078C000F8B5164B164C174EE41AE4080D4624047E
:1078D00032681549074644F00300FBF7E5F92B68C9
:1078E000013313D1114940F27910FBF709FD3A46F3
:1078F0000F4B30682946FFF76DFF024660B144F038
:1079000001000C49BDE8F840FBF7CEB92846FFF767
:1079100055FF0028EBD1E5E7F8BD00BF78D30200A2
:10792000A8D30200CC23002022C302004CC30200D3
:10793000E044002092C302000149FFF7C1BF00BF2D
:1079400000F0020038B505460020FFF797FF044617
:1079500018B903492846FFF7B3FF204638BD00BFDA
:10796000F44C00202DE9F047524B534D5349ED1A8A
:10797000ED082D0445F0040804464046FBF790F955
:107980002046FFF773FB024638B14D4945F0010030
:10799000FBF78AF90320BDE8F0874A480368013302
:1079A0005FD0FFF70BFF8146474E484FD6F800A047
:1079B000DAF80030013377D05046FFF7FFFE044677
:1079C00070B1DAF80440012C0AD00022C3210AF574
:1079D0001870FBF779FCDAF85C42231A5C425C41D0
:1079E000B9F1000F3FD03A494046FBF759F9354904
:1079F00036484FF4607202F0D3FB84B135494046FB
:107A0000FBF74EF9316834485422043102F0C8FBC8
:107A1000316832484FF432725C3102F0C1FB7C684D
:107A2000012C38D145F003002D49FBF739F92D49D8
:107A3000402201F5E47002F0B3FB2B491C2201F552
:107A4000E47002F0ADFB294987F8A142002304222B
:107A500001F2862087F8603287F8E23202F0A0FB5C
:107A600017E09146A0E74CB1214945F00300FBF730
:107A700017F9316815484FF46072CEE71D4945F09B
:107A80000200FBF70DF911484FF46072002102F07B
:107A900095FB02237B600020FFF754FF00283FF492
:107AA0007AAF1549024671E7B9F1000FE6D000241C
:107AB00099E700BF78D30200A8D30200CFC3020029
:107AC000F2C3020000F00200CC230020F44C00209E
